{
  "contractName": "Panda",
  "abi": [
    {
      "inputs": [],
      "stateMutability": "nonpayable",
      "type": "constructor"
    },
    {
      "anonymous": false,
      "inputs": [
        {
          "indexed": false,
          "internalType": "uint256",
          "name": "game",
          "type": "uint256"
        },
        {
          "indexed": false,
          "internalType": "uint256",
          "name": "round",
          "type": "uint256"
        },
        {
          "indexed": false,
          "internalType": "address",
          "name": "originator",
          "type": "address"
        },
        {
          "indexed": false,
          "internalType": "uint256",
          "name": "value",
          "type": "uint256"
        },
        {
          "indexed": false,
          "internalType": "uint256",
          "name": "stake",
          "type": "uint256"
        }
      ],
      "name": "DepositMade",
      "type": "event"
    },
    {
      "inputs": [
        {
          "internalType": "address",
          "name": "",
          "type": "address"
        }
      ],
      "name": "balances",
      "outputs": [
        {
          "internalType": "uint256",
          "name": "",
          "type": "uint256"
        }
      ],
      "stateMutability": "view",
      "type": "function",
      "constant": true
    },
    {
      "inputs": [],
      "name": "contractOwner",
      "outputs": [
        {
          "internalType": "address",
          "name": "",
          "type": "address"
        }
      ],
      "stateMutability": "view",
      "type": "function",
      "constant": true
    },
    {
      "inputs": [],
      "name": "game",
      "outputs": [
        {
          "internalType": "uint256",
          "name": "",
          "type": "uint256"
        }
      ],
      "stateMutability": "view",
      "type": "function",
      "constant": true
    },
    {
      "inputs": [],
      "name": "lastWinner",
      "outputs": [
        {
          "internalType": "address",
          "name": "",
          "type": "address"
        }
      ],
      "stateMutability": "view",
      "type": "function",
      "constant": true
    },
    {
      "inputs": [],
      "name": "minValue",
      "outputs": [
        {
          "internalType": "uint256",
          "name": "",
          "type": "uint256"
        }
      ],
      "stateMutability": "view",
      "type": "function",
      "constant": true
    },
    {
      "inputs": [],
      "name": "newRoundBouns",
      "outputs": [
        {
          "internalType": "uint256",
          "name": "",
          "type": "uint256"
        }
      ],
      "stateMutability": "view",
      "type": "function",
      "constant": true
    },
    {
      "inputs": [],
      "name": "pool",
      "outputs": [
        {
          "internalType": "uint256",
          "name": "",
          "type": "uint256"
        }
      ],
      "stateMutability": "view",
      "type": "function",
      "constant": true
    },
    {
      "inputs": [],
      "name": "round",
      "outputs": [
        {
          "internalType": "uint256",
          "name": "",
          "type": "uint256"
        }
      ],
      "stateMutability": "view",
      "type": "function",
      "constant": true
    },
    {
      "inputs": [],
      "name": "stake",
      "outputs": [
        {
          "internalType": "uint256",
          "name": "",
          "type": "uint256"
        }
      ],
      "stateMutability": "view",
      "type": "function",
      "constant": true
    },
    {
      "inputs": [],
      "name": "topDeposit",
      "outputs": [
        {
          "internalType": "uint256",
          "name": "",
          "type": "uint256"
        }
      ],
      "stateMutability": "view",
      "type": "function",
      "constant": true
    },
    {
      "inputs": [],
      "name": "topDepositor",
      "outputs": [
        {
          "internalType": "address payable",
          "name": "",
          "type": "address"
        }
      ],
      "stateMutability": "view",
      "type": "function",
      "constant": true
    },
    {
      "inputs": [],
      "name": "deposit",
      "outputs": [],
      "stateMutability": "payable",
      "type": "function",
      "payable": true
    },
    {
      "inputs": [],
      "name": "whatGame",
      "outputs": [
        {
          "internalType": "uint256",
          "name": "",
          "type": "uint256"
        }
      ],
      "stateMutability": "view",
      "type": "function",
      "constant": true
    },
    {
      "inputs": [],
      "name": "whatRound",
      "outputs": [
        {
          "internalType": "uint256",
          "name": "",
          "type": "uint256"
        }
      ],
      "stateMutability": "view",
      "type": "function",
      "constant": true
    },
    {
      "inputs": [],
      "name": "whatMinValue",
      "outputs": [
        {
          "internalType": "uint256",
          "name": "",
          "type": "uint256"
        }
      ],
      "stateMutability": "view",
      "type": "function",
      "constant": true
    },
    {
      "inputs": [],
      "name": "whatStake",
      "outputs": [
        {
          "internalType": "uint256",
          "name": "",
          "type": "uint256"
        }
      ],
      "stateMutability": "view",
      "type": "function",
      "constant": true
    },
    {
      "inputs": [],
      "name": "whoTopDepositor",
      "outputs": [
        {
          "internalType": "address",
          "name": "",
          "type": "address"
        }
      ],
      "stateMutability": "view",
      "type": "function",
      "constant": true
    },
    {
      "inputs": [],
      "name": "whatTopDeposit",
      "outputs": [
        {
          "internalType": "uint256",
          "name": "",
          "type": "uint256"
        }
      ],
      "stateMutability": "view",
      "type": "function",
      "constant": true
    },
    {
      "inputs": [],
      "name": "whoLastWinner",
      "outputs": [
        {
          "internalType": "address",
          "name": "",
          "type": "address"
        }
      ],
      "stateMutability": "view",
      "type": "function",
      "constant": true
    }
  ],
  "bytecode": "0x608060405266038d7ea4c6800060055534801561001b57600080fd5b5033600960006101000a81548173ffffffffffffffffffffffffffffffffffffffff021916908373ffffffffffffffffffffffffffffffffffffffff160217905550610bc08061006c6000396000f3fe6080604052600436106101145760003560e01c80637228dd12116100a0578063ce606ee011610064578063ce606ee014610385578063d0e30db0146103b0578063dc28bd34146103ba578063ec9c9f8a146103e5578063fe1881841461041057610114565b80637228dd12146102ae5780638a02c41c146102d9578063963e63c714610304578063a59d2a5e1461032f578063c3fe3e281461035a57610114565b806327e235e3116100e757806327e235e3146101c55780632f862adb146102025780633a4b66f11461022d578063489a0de91461025857806369041f371461028357610114565b8063032fc13b1461011957806303e9d4e314610144578063146ca5311461016f57806316f0115b1461019a575b600080fd5b34801561012557600080fd5b5061012e61043b565b60405161013b91906108d9565b60405180910390f35b34801561015057600080fd5b50610159610445565b60405161016691906108d9565b60405180910390f35b34801561017b57600080fd5b5061018461044b565b60405161019191906108d9565b60405180910390f35b3480156101a657600080fd5b506101af610451565b6040516101bc91906108d9565b60405180910390f35b3480156101d157600080fd5b506101ec60048036038101906101e79190610957565b610457565b6040516101f991906108d9565b60405180910390f35b34801561020e57600080fd5b5061021761046f565b60405161022491906108d9565b60405180910390f35b34801561023957600080fd5b50610242610475565b60405161024f91906108d9565b60405180910390f35b34801561026457600080fd5b5061026d61047b565b60405161027a9190610993565b60405180910390f35b34801561028f57600080fd5b506102986104a5565b6040516102a591906108d9565b60405180910390f35b3480156102ba57600080fd5b506102c36104af565b6040516102d091906108d9565b60405180910390f35b3480156102e557600080fd5b506102ee6104b9565b6040516102fb9190610993565b60405180910390f35b34801561031057600080fd5b506103196104e3565b60405161032691906108d9565b60405180910390f35b34801561033b57600080fd5b506103446104e9565b60405161035191906108d9565b60405180910390f35b34801561036657600080fd5b5061036f6104f3565b60405161037c91906108d9565b60405180910390f35b34801561039157600080fd5b5061039a6104f9565b6040516103a79190610993565b60405180910390f35b6103b861051f565b005b3480156103c657600080fd5b506103cf610667565b6040516103dc91906109cf565b60405180910390f35b3480156103f157600080fd5b506103fa61068d565b60405161040791906108d9565b60405180910390f35b34801561041c57600080fd5b50610425610696565b6040516104329190610993565b60405180910390f35b6000600154905090565b60025481565b60015481565b60035481565b600a6020528060005260406000206000915090505481565b60065481565b60045481565b6000600860009054906101000a900473ffffffffffffffffffffffffffffffffffffffff16905090565b6000600454905090565b6000600554905090565b6000600760009054906101000a900473ffffffffffffffffffffffffffffffffffffffff16905090565b60055481565b6000600254905090565b60005481565b600960009054906101000a900473ffffffffffffffffffffffffffffffffffffffff1681565b60055434101561052e57600080fd5b6001600081548092919061054190610a19565b919050555034600360008282546105589190610a61565b92505081905550600654606460616003546105739190610a95565b61057d9190610b06565b6105879190610a61565b60048190555034600a60003373ffffffffffffffffffffffffffffffffffffffff1673ffffffffffffffffffffffffffffffffffffffff168152602001908152602001600020819055507f3c52ff76e1cc9528a6912e12a3aeb6159afc8e6ef8f9bc1da62bc3644b237b4b60005460015433600a60003373ffffffffffffffffffffffffffffffffffffffff1673ffffffffffffffffffffffffffffffffffffffff1681526020019081526020016000205460045460405161064d959493929190610b37565b60405180910390a161065d6106bc565b61066561073e565b565b600760009054906101000a900473ffffffffffffffffffffffffffffffffffffffff1681565b60008054905090565b600860009054906101000a900473ffffffffffffffffffffffffffffffffffffffff1681565b60025434111561073c5733600760006101000a81548173ffffffffffffffffffffffffffffffffffffffff021916908373ffffffffffffffffffffffffffffffffffffffff16021790555034600281905550600260055461071d9190610a95565b600254111561073b57600280546107349190610b06565b6005819055505b5b565b6005600154106107bc57600760009054906101000a900473ffffffffffffffffffffffffffffffffffffffff1673ffffffffffffffffffffffffffffffffffffffff166108fc6004549081150290604051600060405180830381858888f193505050501580156107b2573d6000803e3d6000fd5b506107bb6107be565b5b565b600060038190555060646004546107d59190610b06565b60068190555060065460048190555060006001819055506000600281905550600760009054906101000a900473ffffffffffffffffffffffffffffffffffffffff16600860006101000a81548173ffffffffffffffffffffffffffffffffffffffff021916908373ffffffffffffffffffffffffffffffffffffffff1602179055506000600760006101000a81548173ffffffffffffffffffffffffffffffffffffffff021916908373ffffffffffffffffffffffffffffffffffffffff16021790555066038d7ea4c680006005819055506000808154809291906108b990610a19565b9190505550565b6000819050919050565b6108d3816108c0565b82525050565b60006020820190506108ee60008301846108ca565b92915050565b600080fd5b600073ffffffffffffffffffffffffffffffffffffffff82169050919050565b6000610924826108f9565b9050919050565b61093481610919565b811461093f57600080fd5b50565b6000813590506109518161092b565b92915050565b60006020828403121561096d5761096c6108f4565b5b600061097b84828501610942565b91505092915050565b61098d81610919565b82525050565b60006020820190506109a86000830184610984565b92915050565b60006109b9826108f9565b9050919050565b6109c9816109ae565b82525050565b60006020820190506109e460008301846109c0565b92915050565b7f4e487b7100000000000000000000000000000000000000000000000000000000600052601160045260246000fd5b6000610a24826108c0565b91507fffffffffffffffffffffffffffffffffffffffffffffffffffffffffffffffff8203610a5657610a556109ea565b5b600182019050919050565b6000610a6c826108c0565b9150610a77836108c0565b9250828201905080821115610a8f57610a8e6109ea565b5b92915050565b6000610aa0826108c0565b9150610aab836108c0565b9250828202610ab9816108c0565b91508282048414831517610ad057610acf6109ea565b5b5092915050565b7f4e487b7100000000000000000000000000000000000000000000000000000000600052601260045260246000fd5b6000610b11826108c0565b9150610b1c836108c0565b925082610b2c57610b2b610ad7565b5b828204905092915050565b600060a082019050610b4c60008301886108ca565b610b5960208301876108ca565b610b666040830186610984565b610b7360608301856108ca565b610b8060808301846108ca565b969550505050505056fea2646970667358221220ce1d586c9cdcede8fb85f8511c1a6066181239413405aab800d98ee1a13fb9c964736f6c63430008130033",
  "immutableReferences": {},
  "source": "// SPDX-License-Identifier: UNLICENSED\npragma solidity ^0.8.19;\n\ncontract Panda {\n\n    uint public game;\n    uint public round;\n    uint public topDeposit;\n    uint public pool;\n    uint public stake;\n    uint public minValue = 0.001 ether; // DOUBLE_CHECK\n    uint public newRoundBouns;\n\n    address payable public topDepositor;\n    address public lastWinner;\n    address public contractOwner;\n\n    mapping(address => uint) public balances;\n\n    event DepositMade (uint game, uint round, address originator, uint value, uint stake);\n\n    constructor() {\n        contractOwner = msg.sender;\n    }\n\n    modifier contractOwnerOnly() {\n        require(msg.sender == contractOwner);\n        _;\n    }\n\n    modifier minTransactionValue() {\n        require(msg.value >= minValue);\n        _;\n    }\n\n    function deposit() minTransactionValue public payable {\n        round++;\n        pool += msg.value;\n        stake = pool * 97 / 100 + newRoundBouns; // OKOK\n        balances[msg.sender] = msg.value;\n        emit DepositMade(game, round, msg.sender, balances[msg.sender], stake);\n        isTopDepositor();\n        isPayday();\n    }\n\n    function isTopDepositor() private {\n        if (msg.value > topDeposit) {\n            topDepositor = payable(msg.sender);\n            topDeposit = msg.value;\n            if (topDeposit > minValue * 2 ) {\n                minValue = topDeposit / 2;\n            }\n        }\n    }\n\n    function isPayday() private {\n        if (round >= 5) {\n            topDepositor.transfer(stake);\n            newGame();\n        }\n    }\n\n    function newGame() private {\n        pool = 0;\n        newRoundBouns = stake / 100;\n        stake = newRoundBouns;\n        round = 0;\n        topDeposit = 0;\n        lastWinner = topDepositor;\n        topDepositor = payable(address(0));\n        minValue = 0.001 ether;\n        game++;       \n    }\n\n    // TESTY\n\n    function whatGame() public view returns (uint) {\n        return game;     \n    }\n\n    function whatRound() public view returns (uint) {\n        return round;     \n    }\n\n    function whatMinValue() public view returns (uint) {\n        return minValue;     \n    }\n\n    function whatStake() public view returns (uint) {\n        return stake;     \n    }\n\n    function whoTopDepositor() public view returns (address) {\n        return topDepositor;     \n    }\n\n    function whatTopDeposit() public view returns (uint) {\n        return topDeposit;     \n    }\n\n    function whoLastWinner() public view returns (address) {\n        return lastWinner;     \n    }\n\n}\n\n// (admin only)\n// SET no of rounds, set minValue \n// KILL CONTRACT\n// SET OWNER",
  "sourcePath": "/Users/piotrantypiuk/Documents/dev/panda/contracts/panda.sol",
  "compiler": {
    "name": "solc",
    "version": "0.8.19+commit.7dd6d404.Emscripten.clang"
  },
  "schemaVersion": "3.4.13",
  "updatedAt": "2023-03-26T15:59:40.996Z",
  "networkType": "ethereum",
  "devdoc": {
    "kind": "dev",
    "methods": {},
    "version": 1
  },
  "userdoc": {
    "kind": "user",
    "methods": {},
    "version": 1
  }
}